{
  "_format": "hh-sol-artifact-1",
  "contractName": "NFTMarketplace",
  "sourceName": "contracts/NFTMarketplace.sol",
  "abi": [
    {
      "inputs": [],
      "stateMutability": "nonpayable",
      "type": "constructor"
    },
    {
      "anonymous": false,
      "inputs": [
        {
          "indexed": true,
          "internalType": "address",
          "name": "owner",
          "type": "address"
        },
        {
          "indexed": true,
          "internalType": "address",
          "name": "approved",
          "type": "address"
        },
        {
          "indexed": true,
          "internalType": "uint256",
          "name": "tokenId",
          "type": "uint256"
        }
      ],
      "name": "Approval",
      "type": "event"
    },
    {
      "anonymous": false,
      "inputs": [
        {
          "indexed": true,
          "internalType": "address",
          "name": "owner",
          "type": "address"
        },
        {
          "indexed": true,
          "internalType": "address",
          "name": "operator",
          "type": "address"
        },
        {
          "indexed": false,
          "internalType": "bool",
          "name": "approved",
          "type": "bool"
        }
      ],
      "name": "ApprovalForAll",
      "type": "event"
    },
    {
      "anonymous": false,
      "inputs": [
        {
          "indexed": true,
          "internalType": "uint256",
          "name": "tokenId",
          "type": "uint256"
        },
        {
          "indexed": false,
          "internalType": "address",
          "name": "seller",
          "type": "address"
        },
        {
          "indexed": false,
          "internalType": "address",
          "name": "owner",
          "type": "address"
        },
        {
          "indexed": false,
          "internalType": "uint256",
          "name": "price",
          "type": "uint256"
        },
        {
          "indexed": false,
          "internalType": "bool",
          "name": "sold",
          "type": "bool"
        }
      ],
      "name": "MarketItemCreated",
      "type": "event"
    },
    {
      "anonymous": false,
      "inputs": [
        {
          "indexed": true,
          "internalType": "address",
          "name": "from",
          "type": "address"
        },
        {
          "indexed": true,
          "internalType": "address",
          "name": "to",
          "type": "address"
        },
        {
          "indexed": true,
          "internalType": "uint256",
          "name": "tokenId",
          "type": "uint256"
        }
      ],
      "name": "Transfer",
      "type": "event"
    },
    {
      "inputs": [
        {
          "internalType": "address",
          "name": "to",
          "type": "address"
        },
        {
          "internalType": "uint256",
          "name": "tokenId",
          "type": "uint256"
        }
      ],
      "name": "approve",
      "outputs": [],
      "stateMutability": "nonpayable",
      "type": "function"
    },
    {
      "inputs": [
        {
          "internalType": "address",
          "name": "owner",
          "type": "address"
        }
      ],
      "name": "balanceOf",
      "outputs": [
        {
          "internalType": "uint256",
          "name": "",
          "type": "uint256"
        }
      ],
      "stateMutability": "view",
      "type": "function"
    },
    {
      "inputs": [
        {
          "internalType": "uint256",
          "name": "tokenId",
          "type": "uint256"
        }
      ],
      "name": "burnNFT",
      "outputs": [],
      "stateMutability": "nonpayable",
      "type": "function"
    },
    {
      "inputs": [
        {
          "internalType": "uint256",
          "name": "tokenId",
          "type": "uint256"
        }
      ],
      "name": "cancelSale",
      "outputs": [],
      "stateMutability": "payable",
      "type": "function"
    },
    {
      "inputs": [
        {
          "internalType": "uint256",
          "name": "tokenId",
          "type": "uint256"
        }
      ],
      "name": "createMarketSale",
      "outputs": [],
      "stateMutability": "payable",
      "type": "function"
    },
    {
      "inputs": [
        {
          "internalType": "string",
          "name": "tokenURI",
          "type": "string"
        },
        {
          "internalType": "uint256",
          "name": "price",
          "type": "uint256"
        }
      ],
      "name": "createToken",
      "outputs": [
        {
          "internalType": "uint256",
          "name": "",
          "type": "uint256"
        }
      ],
      "stateMutability": "payable",
      "type": "function"
    },
    {
      "inputs": [],
      "name": "fetchItemsListed",
      "outputs": [
        {
          "components": [
            {
              "internalType": "uint256",
              "name": "tokenId",
              "type": "uint256"
            },
            {
              "internalType": "address payable",
              "name": "seller",
              "type": "address"
            },
            {
              "internalType": "address payable",
              "name": "owner",
              "type": "address"
            },
            {
              "internalType": "uint256",
              "name": "price",
              "type": "uint256"
            },
            {
              "internalType": "bool",
              "name": "sold",
              "type": "bool"
            }
          ],
          "internalType": "struct NFTMarketplace.MarketItem[]",
          "name": "",
          "type": "tuple[]"
        }
      ],
      "stateMutability": "view",
      "type": "function"
    },
    {
      "inputs": [],
      "name": "fetchMarketItems",
      "outputs": [
        {
          "components": [
            {
              "internalType": "uint256",
              "name": "tokenId",
              "type": "uint256"
            },
            {
              "internalType": "address payable",
              "name": "seller",
              "type": "address"
            },
            {
              "internalType": "address payable",
              "name": "owner",
              "type": "address"
            },
            {
              "internalType": "uint256",
              "name": "price",
              "type": "uint256"
            },
            {
              "internalType": "bool",
              "name": "sold",
              "type": "bool"
            }
          ],
          "internalType": "struct NFTMarketplace.MarketItem[]",
          "name": "",
          "type": "tuple[]"
        }
      ],
      "stateMutability": "view",
      "type": "function"
    },
    {
      "inputs": [],
      "name": "fetchMyNFTs",
      "outputs": [
        {
          "components": [
            {
              "internalType": "uint256",
              "name": "tokenId",
              "type": "uint256"
            },
            {
              "internalType": "address payable",
              "name": "seller",
              "type": "address"
            },
            {
              "internalType": "address payable",
              "name": "owner",
              "type": "address"
            },
            {
              "internalType": "uint256",
              "name": "price",
              "type": "uint256"
            },
            {
              "internalType": "bool",
              "name": "sold",
              "type": "bool"
            }
          ],
          "internalType": "struct NFTMarketplace.MarketItem[]",
          "name": "",
          "type": "tuple[]"
        }
      ],
      "stateMutability": "view",
      "type": "function"
    },
    {
      "inputs": [
        {
          "internalType": "uint256",
          "name": "tokenId",
          "type": "uint256"
        }
      ],
      "name": "getApproved",
      "outputs": [
        {
          "internalType": "address",
          "name": "",
          "type": "address"
        }
      ],
      "stateMutability": "view",
      "type": "function"
    },
    {
      "inputs": [],
      "name": "getListingPrice",
      "outputs": [
        {
          "internalType": "uint256",
          "name": "",
          "type": "uint256"
        }
      ],
      "stateMutability": "view",
      "type": "function"
    },
    {
      "inputs": [
        {
          "internalType": "address",
          "name": "owner",
          "type": "address"
        },
        {
          "internalType": "address",
          "name": "operator",
          "type": "address"
        }
      ],
      "name": "isApprovedForAll",
      "outputs": [
        {
          "internalType": "bool",
          "name": "",
          "type": "bool"
        }
      ],
      "stateMutability": "view",
      "type": "function"
    },
    {
      "inputs": [],
      "name": "name",
      "outputs": [
        {
          "internalType": "string",
          "name": "",
          "type": "string"
        }
      ],
      "stateMutability": "view",
      "type": "function"
    },
    {
      "inputs": [
        {
          "internalType": "uint256",
          "name": "tokenId",
          "type": "uint256"
        }
      ],
      "name": "ownerOf",
      "outputs": [
        {
          "internalType": "address",
          "name": "",
          "type": "address"
        }
      ],
      "stateMutability": "view",
      "type": "function"
    },
    {
      "inputs": [
        {
          "internalType": "uint256",
          "name": "tokenId",
          "type": "uint256"
        },
        {
          "internalType": "uint256",
          "name": "price",
          "type": "uint256"
        }
      ],
      "name": "resellToken",
      "outputs": [],
      "stateMutability": "payable",
      "type": "function"
    },
    {
      "inputs": [
        {
          "internalType": "address",
          "name": "from",
          "type": "address"
        },
        {
          "internalType": "address",
          "name": "to",
          "type": "address"
        },
        {
          "internalType": "uint256",
          "name": "tokenId",
          "type": "uint256"
        }
      ],
      "name": "safeTransferFrom",
      "outputs": [],
      "stateMutability": "nonpayable",
      "type": "function"
    },
    {
      "inputs": [
        {
          "internalType": "address",
          "name": "from",
          "type": "address"
        },
        {
          "internalType": "address",
          "name": "to",
          "type": "address"
        },
        {
          "internalType": "uint256",
          "name": "tokenId",
          "type": "uint256"
        },
        {
          "internalType": "bytes",
          "name": "data",
          "type": "bytes"
        }
      ],
      "name": "safeTransferFrom",
      "outputs": [],
      "stateMutability": "nonpayable",
      "type": "function"
    },
    {
      "inputs": [
        {
          "internalType": "address",
          "name": "operator",
          "type": "address"
        },
        {
          "internalType": "bool",
          "name": "approved",
          "type": "bool"
        }
      ],
      "name": "setApprovalForAll",
      "outputs": [],
      "stateMutability": "nonpayable",
      "type": "function"
    },
    {
      "inputs": [
        {
          "internalType": "bytes4",
          "name": "interfaceId",
          "type": "bytes4"
        }
      ],
      "name": "supportsInterface",
      "outputs": [
        {
          "internalType": "bool",
          "name": "",
          "type": "bool"
        }
      ],
      "stateMutability": "view",
      "type": "function"
    },
    {
      "inputs": [],
      "name": "symbol",
      "outputs": [
        {
          "internalType": "string",
          "name": "",
          "type": "string"
        }
      ],
      "stateMutability": "view",
      "type": "function"
    },
    {
      "inputs": [
        {
          "internalType": "uint256",
          "name": "tokenId",
          "type": "uint256"
        }
      ],
      "name": "tokenURI",
      "outputs": [
        {
          "internalType": "string",
          "name": "",
          "type": "string"
        }
      ],
      "stateMutability": "view",
      "type": "function"
    },
    {
      "inputs": [
        {
          "internalType": "address",
          "name": "from",
          "type": "address"
        },
        {
          "internalType": "address",
          "name": "to",
          "type": "address"
        },
        {
          "internalType": "uint256",
          "name": "tokenId",
          "type": "uint256"
        }
      ],
      "name": "transferFrom",
      "outputs": [],
      "stateMutability": "nonpayable",
      "type": "function"
    },
    {
      "inputs": [
        {
          "internalType": "uint256",
          "name": "_listingPrice",
          "type": "uint256"
        }
      ],
      "name": "updateListingPrice",
      "outputs": [],
      "stateMutability": "payable",
      "type": "function"
    }
  ],
  "bytecode": "0x608060405264e8d4a510006009553480156200001a57600080fd5b506040518060400160405280601081526020017f4d657461766572736520546f6b656e73000000000000000000000000000000008152506040518060400160405280600481526020017f4d4554540000000000000000000000000000000000000000000000000000000081525081600090816200009891906200036e565b508060019081620000aa91906200036e565b50505033600a60006101000a81548173ffffffffffffffffffffffffffffffffffffffff021916908373ffffffffffffffffffffffffffffffffffffffff16021790555062000455565b600081519050919050565b7f4e487b7100000000000000000000000000000000000000000000000000000000600052604160045260246000fd5b7f4e487b7100000000000000000000000000000000000000000000000000000000600052602260045260246000fd5b600060028204905060018216806200017657607f821691505b6020821081036200018c576200018b6200012e565b5b50919050565b60008190508160005260206000209050919050565b60006020601f8301049050919050565b600082821b905092915050565b600060088302620001f67fffffffffffffffffffffffffffffffffffffffffffffffffffffffffffffffff82620001b7565b620002028683620001b7565b95508019841693508086168417925050509392505050565b6000819050919050565b6000819050919050565b60006200024f6200024962000243846200021a565b62000224565b6200021a565b9050919050565b6000819050919050565b6200026b836200022e565b620002836200027a8262000256565b848454620001c4565b825550505050565b600090565b6200029a6200028b565b620002a781848462000260565b505050565b5b81811015620002cf57620002c360008262000290565b600181019050620002ad565b5050565b601f8211156200031e57620002e88162000192565b620002f384620001a7565b8101602085101562000303578190505b6200031b6200031285620001a7565b830182620002ac565b50505b505050565b600082821c905092915050565b6000620003436000198460080262000323565b1980831691505092915050565b60006200035e838362000330565b9150826002028217905092915050565b6200037982620000f4565b67ffffffffffffffff811115620003955762000394620000ff565b5b620003a182546200015d565b620003ae828285620002d3565b600060209050601f831160018114620003e65760008415620003d1578287015190505b620003dd858262000350565b8655506200044d565b601f198416620003f68662000192565b60005b828110156200042057848901518255600182019150602085019450602081019050620003f9565b868310156200044057848901516200043c601f89168262000330565b8355505b6001600288020188555050505b505050505050565b6148dc80620004656000396000f3fe6080604052600436106101405760003560e01c80636352211e116100b6578063b88d4fde1161006f578063b88d4fde14610454578063bd94b0051461047d578063be9af53614610499578063c87b56dd146104b5578063e219fc75146104f2578063e985e9c51461050e57610140565b80636352211e1461033a57806370a082311461037757806372b3b620146103b457806395d89b41146103e4578063a22cb4651461040f578063ae677aa31461043857610140565b806312e855851161010857806312e855851461023e578063202e37401461026957806323b872dd146102945780632890e0d7146102bd57806342842e0e146102e657806345f8fa801461030f57610140565b806301ffc9a71461014557806306fdde0314610182578063081812fc146101ad578063095ea7b3146101ea5780630f08efe014610213575b600080fd5b34801561015157600080fd5b5061016c60048036038101906101679190612f42565b61054b565b6040516101799190612f8a565b60405180910390f35b34801561018e57600080fd5b5061019761062d565b6040516101a49190613035565b60405180910390f35b3480156101b957600080fd5b506101d460048036038101906101cf919061308d565b6106bf565b6040516101e191906130fb565b60405180910390f35b3480156101f657600080fd5b50610211600480360381019061020c9190613142565b610705565b005b34801561021f57600080fd5b5061022861081c565b60405161023591906132d8565b60405180910390f35b34801561024a57600080fd5b50610253610a7e565b6040516102609190613309565b60405180910390f35b34801561027557600080fd5b5061027e610a88565b60405161028b91906132d8565b60405180910390f35b3480156102a057600080fd5b506102bb60048036038101906102b69190613324565b610d68565b005b3480156102c957600080fd5b506102e460048036038101906102df919061308d565b610dc8565b005b3480156102f257600080fd5b5061030d60048036038101906103089190613324565b610f00565b005b34801561031b57600080fd5b50610324610f20565b60405161033191906132d8565b60405180910390f35b34801561034657600080fd5b50610361600480360381019061035c919061308d565b611200565b60405161036e91906130fb565b60405180910390f35b34801561038357600080fd5b5061039e60048036038101906103999190613377565b6112b1565b6040516103ab9190613309565b60405180910390f35b6103ce60048036038101906103c991906134d9565b611368565b6040516103db9190613309565b60405180910390f35b3480156103f057600080fd5b506103f96113aa565b6040516104069190613035565b60405180910390f35b34801561041b57600080fd5b5061043660048036038101906104319190613561565b61143c565b005b610452600480360381019061044d919061308d565b611452565b005b34801561046057600080fd5b5061047b60048036038101906104769190613642565b61157c565b005b6104976004803603810190610492919061308d565b6115de565b005b6104b360048036038101906104ae919061308d565b6117d8565b005b3480156104c157600080fd5b506104dc60048036038101906104d7919061308d565b611a10565b6040516104e99190613035565b60405180910390f35b61050c600480360381019061050791906136c5565b611b22565b005b34801561051a57600080fd5b5061053560048036038101906105309190613705565b611d17565b6040516105429190612f8a565b60405180910390f35b60007f80ac58cd000000000000000000000000000000000000000000000000000000007bffffffffffffffffffffffffffffffffffffffffffffffffffffffff1916827bffffffffffffffffffffffffffffffffffffffffffffffffffffffff1916148061061657507f5b5e139f000000000000000000000000000000000000000000000000000000007bffffffffffffffffffffffffffffffffffffffffffffffffffffffff1916827bffffffffffffffffffffffffffffffffffffffffffffffffffffffff1916145b80610626575061062582611dab565b5b9050919050565b60606000805461063c90613774565b80601f016020809104026020016040519081016040528092919081815260200182805461066890613774565b80156106b55780601f1061068a576101008083540402835291602001916106b5565b820191906000526020600020905b81548152906001019060200180831161069857829003601f168201915b5050505050905090565b60006106ca82611e15565b6004600083815260200190815260200160002060009054906101000a900473ffffffffffffffffffffffffffffffffffffffff169050919050565b600061071082611200565b90508073ffffffffffffffffffffffffffffffffffffffff168373ffffffffffffffffffffffffffffffffffffffff1603610780576040517f08c379a000000000000000000000000000000000000000000000000000000000815260040161077790613817565b60405180910390fd5b8073ffffffffffffffffffffffffffffffffffffffff1661079f611e60565b73ffffffffffffffffffffffffffffffffffffffff1614806107ce57506107cd816107c8611e60565b611d17565b5b61080d576040517f08c379a0000000000000000000000000000000000000000000000000000000008152600401610804906138a9565b60405180910390fd5b6108178383611e68565b505050565b6060600061082a6007611f21565b905060006108386008611f21565b6108426007611f21565b61084c91906138f8565b90506000808267ffffffffffffffff81111561086b5761086a6133ae565b5b6040519080825280602002602001820160405280156108a457816020015b610891612e1c565b8152602001906001900390816108895790505b50905060005b84811015610a73573073ffffffffffffffffffffffffffffffffffffffff16600b60006001846108da919061392c565b815260200190815260200160002060020160009054906101000a900473ffffffffffffffffffffffffffffffffffffffff1673ffffffffffffffffffffffffffffffffffffffff1603610a66576000600182610936919061392c565b90506000600b60008381526020019081526020016000209050806040518060a0016040529081600082015481526020016001820160009054906101000a900473ffffffffffffffffffffffffffffffffffffffff1673ffffffffffffffffffffffffffffffffffffffff1673ffffffffffffffffffffffffffffffffffffffff1681526020016002820160009054906101000a900473ffffffffffffffffffffffffffffffffffffffff1673ffffffffffffffffffffffffffffffffffffffff1673ffffffffffffffffffffffffffffffffffffffff168152602001600382015481526020016004820160009054906101000a900460ff161515151581525050848681518110610a4957610a48613960565b5b6020026020010181905250600185610a61919061392c565b945050505b80806001019150506108aa565b508094505050505090565b6000600954905090565b60606000610a966007611f21565b905060008060005b83811015610b38573373ffffffffffffffffffffffffffffffffffffffff16600b6000600184610ace919061392c565b815260200190815260200160002060020160009054906101000a900473ffffffffffffffffffffffffffffffffffffffff1673ffffffffffffffffffffffffffffffffffffffff1603610b2b57600183610b28919061392c565b92505b8080600101915050610a9e565b5060008267ffffffffffffffff811115610b5557610b546133ae565b5b604051908082528060200260200182016040528015610b8e57816020015b610b7b612e1c565b815260200190600190039081610b735790505b50905060005b84811015610d5d573373ffffffffffffffffffffffffffffffffffffffff16600b6000600184610bc4919061392c565b815260200190815260200160002060020160009054906101000a900473ffffffffffffffffffffffffffffffffffffffff1673ffffffffffffffffffffffffffffffffffffffff1603610d50576000600182610c20919061392c565b90506000600b60008381526020019081526020016000209050806040518060a0016040529081600082015481526020016001820160009054906101000a900473ffffffffffffffffffffffffffffffffffffffff1673ffffffffffffffffffffffffffffffffffffffff1673ffffffffffffffffffffffffffffffffffffffff1681526020016002820160009054906101000a900473ffffffffffffffffffffffffffffffffffffffff1673ffffffffffffffffffffffffffffffffffffffff1673ffffffffffffffffffffffffffffffffffffffff168152602001600382015481526020016004820160009054906101000a900460ff161515151581525050848681518110610d3357610d32613960565b5b6020026020010181905250600185610d4b919061392c565b945050505b8080600101915050610b94565b508094505050505090565b610d79610d73611e60565b82611f2f565b610db8576040517f08c379a0000000000000000000000000000000000000000000000000000000008152600401610daf90613a01565b60405180910390fd5b610dc3838383611fc4565b505050565b3373ffffffffffffffffffffffffffffffffffffffff16600b600083815260200190815260200160002060020160009054906101000a900473ffffffffffffffffffffffffffffffffffffffff1673ffffffffffffffffffffffffffffffffffffffff1614610e6c576040517f08c379a0000000000000000000000000000000000000000000000000000000008152600401610e6390613a6d565b60405180910390fd5b610e758161222a565b600b60008281526020019081526020016000206000808201600090556001820160006101000a81549073ffffffffffffffffffffffffffffffffffffffff02191690556002820160006101000a81549073ffffffffffffffffffffffffffffffffffffffff021916905560038201600090556004820160006101000a81549060ff0219169055505050565b610f1b8383836040518060200160405280600081525061157c565b505050565b60606000610f2e6007611f21565b905060008060005b83811015610fd0573373ffffffffffffffffffffffffffffffffffffffff16600b6000600184610f66919061392c565b815260200190815260200160002060010160009054906101000a900473ffffffffffffffffffffffffffffffffffffffff1673ffffffffffffffffffffffffffffffffffffffff1603610fc357600183610fc0919061392c565b92505b8080600101915050610f36565b5060008267ffffffffffffffff811115610fed57610fec6133ae565b5b60405190808252806020026020018201604052801561102657816020015b611013612e1c565b81526020019060019003908161100b5790505b50905060005b848110156111f5573373ffffffffffffffffffffffffffffffffffffffff16600b600060018461105c919061392c565b815260200190815260200160002060010160009054906101000a900473ffffffffffffffffffffffffffffffffffffffff1673ffffffffffffffffffffffffffffffffffffffff16036111e85760006001826110b8919061392c565b90506000600b60008381526020019081526020016000209050806040518060a0016040529081600082015481526020016001820160009054906101000a900473ffffffffffffffffffffffffffffffffffffffff1673ffffffffffffffffffffffffffffffffffffffff1673ffffffffffffffffffffffffffffffffffffffff1681526020016002820160009054906101000a900473ffffffffffffffffffffffffffffffffffffffff1673ffffffffffffffffffffffffffffffffffffffff1673ffffffffffffffffffffffffffffffffffffffff168152602001600382015481526020016004820160009054906101000a900460ff1615151515815250508486815181106111cb576111ca613960565b5b60200260200101819052506001856111e3919061392c565b945050505b808060010191505061102c565b508094505050505090565b6000806002600084815260200190815260200160002060009054906101000a900473ffffffffffffffffffffffffffffffffffffffff169050600073ffffffffffffffffffffffffffffffffffffffff168173ffffffffffffffffffffffffffffffffffffffff16036112a8576040517f08c379a000000000000000000000000000000000000000000000000000000000815260040161129f90613ad9565b60405180910390fd5b80915050919050565b60008073ffffffffffffffffffffffffffffffffffffffff168273ffffffffffffffffffffffffffffffffffffffff1603611321576040517f08c379a000000000000000000000000000000000000000000000000000000000815260040161131890613b6b565b60405180910390fd5b600360008373ffffffffffffffffffffffffffffffffffffffff1673ffffffffffffffffffffffffffffffffffffffff168152602001908152602001600020549050919050565b6000611374600761227d565b60006113806007611f21565b905061138c3382612293565b611396818561246c565b6113a081846124d9565b8091505092915050565b6060600180546113b990613774565b80601f01602080910402602001604051908101604052809291908181526020018280546113e590613774565b80156114325780601f1061140757610100808354040283529160200191611432565b820191906000526020600020905b81548152906001019060200180831161141557829003601f168201915b5050505050905090565b61144e611447611e60565b83836126dc565b5050565b600a60009054906101000a900473ffffffffffffffffffffffffffffffffffffffff1673ffffffffffffffffffffffffffffffffffffffff163373ffffffffffffffffffffffffffffffffffffffff16146114e2576040517f08c379a00000000000000000000000000000000000000000000000000000000081526004016114d990613bfd565b60405180910390fd5b3373ffffffffffffffffffffffffffffffffffffffff16600a60009054906101000a900473ffffffffffffffffffffffffffffffffffffffff1673ffffffffffffffffffffffffffffffffffffffff1614611572576040517f08c379a000000000000000000000000000000000000000000000000000000000815260040161156990613c8f565b60405180910390fd5b8060098190555050565b61158d611587611e60565b83611f2f565b6115cc576040517f08c379a00000000000000000000000000000000000000000000000000000000081526004016115c390613a01565b60405180910390fd5b6115d884848484612848565b50505050565b3373ffffffffffffffffffffffffffffffffffffffff16600b600083815260200190815260200160002060010160009054906101000a900473ffffffffffffffffffffffffffffffffffffffff1673ffffffffffffffffffffffffffffffffffffffff1614611682576040517f08c379a000000000000000000000000000000000000000000000000000000000815260040161167990613cfb565b60405180910390fd5b600b600082815260200190815260200160002060040160009054906101000a900460ff16156116e6576040517f08c379a00000000000000000000000000000000000000000000000000000000081526004016116dd90613d8d565b60405180910390fd5b6001600b600083815260200190815260200160002060040160006101000a81548160ff02191690831515021790555061171f600861227d565b33600b600083815260200190815260200160002060020160006101000a81548173ffffffffffffffffffffffffffffffffffffffff021916908373ffffffffffffffffffffffffffffffffffffffff1602179055506000600b600083815260200190815260200160002060010160006101000a81548173ffffffffffffffffffffffffffffffffffffffff021916908373ffffffffffffffffffffffffffffffffffffffff1602179055506117d5303383611fc4565b50565b6000600b6000838152602001908152602001600020600301549050803414611835576040517f08c379a000000000000000000000000000000000000000000000000000000000815260040161182c90613e1f565b60405180910390fd5b33600b600084815260200190815260200160002060020160006101000a81548173ffffffffffffffffffffffffffffffffffffffff021916908373ffffffffffffffffffffffffffffffffffffffff1602179055506001600b600084815260200190815260200160002060040160006101000a81548160ff0219169083151502179055506118c3600861227d565b6118ce303384611fc4565b600a60009054906101000a900473ffffffffffffffffffffffffffffffffffffffff1673ffffffffffffffffffffffffffffffffffffffff166108fc6009549081150290604051600060405180830381858888f19350505050158015611938573d6000803e3d6000fd5b50600b600083815260200190815260200160002060010160009054906101000a900473ffffffffffffffffffffffffffffffffffffffff1673ffffffffffffffffffffffffffffffffffffffff166108fc349081150290604051600060405180830381858888f193505050501580156119b5573d6000803e3d6000fd5b506000600b600084815260200190815260200160002060010160006101000a81548173ffffffffffffffffffffffffffffffffffffffff021916908373ffffffffffffffffffffffffffffffffffffffff1602179055505050565b6060611a1b82611e15565b6000600660008481526020019081526020016000208054611a3b90613774565b80601f0160208091040260200160405190810160405280929190818152602001828054611a6790613774565b8015611ab45780601f10611a8957610100808354040283529160200191611ab4565b820191906000526020600020905b815481529060010190602001808311611a9757829003601f168201915b505050505090506000611ac56128a4565b90506000815103611ada578192505050611b1d565b600082511115611b0f578082604051602001611af7929190613e7b565b60405160208183030381529060405292505050611b1d565b611b18846128bb565b925050505b919050565b3373ffffffffffffffffffffffffffffffffffffffff16600b600084815260200190815260200160002060020160009054906101000a900473ffffffffffffffffffffffffffffffffffffffff1673ffffffffffffffffffffffffffffffffffffffff1614611bc6576040517f08c379a0000000000000000000000000000000000000000000000000000000008152600401611bbd90613f11565b60405180910390fd5b6009543414611c0a576040517f08c379a0000000000000000000000000000000000000000000000000000000008152600401611c0190613fa3565b60405180910390fd5b6000600b600084815260200190815260200160002060040160006101000a81548160ff02191690831515021790555080600b60008481526020019081526020016000206003018190555033600b600084815260200190815260200160002060010160006101000a81548173ffffffffffffffffffffffffffffffffffffffff021916908373ffffffffffffffffffffffffffffffffffffffff16021790555030600b600084815260200190815260200160002060020160006101000a81548173ffffffffffffffffffffffffffffffffffffffff021916908373ffffffffffffffffffffffffffffffffffffffff160217905550611d086008612923565b611d13333084611fc4565b5050565b6000600560008473ffffffffffffffffffffffffffffffffffffffff1673ffffffffffffffffffffffffffffffffffffffff16815260200190815260200160002060008373ffffffffffffffffffffffffffffffffffffffff1673ffffffffffffffffffffffffffffffffffffffff16815260200190815260200160002060009054906101000a900460ff16905092915050565b60007f01ffc9a7000000000000000000000000000000000000000000000000000000007bffffffffffffffffffffffffffffffffffffffffffffffffffffffff1916827bffffffffffffffffffffffffffffffffffffffffffffffffffffffff1916149050919050565b611e1e8161297f565b611e5d576040517f08c379a0000000000000000000000000000000000000000000000000000000008152600401611e5490613ad9565b60405180910390fd5b50565b600033905090565b816004600083815260200190815260200160002060006101000a81548173ffffffffffffffffffffffffffffffffffffffff021916908373ffffffffffffffffffffffffffffffffffffffff160217905550808273ffffffffffffffffffffffffffffffffffffffff16611edb83611200565b73ffffffffffffffffffffffffffffffffffffffff167f8c5be1e5ebec7d5bd14f71427d1e84f3dd0314c0f7b2291e5b200ac8c7c3b92560405160405180910390a45050565b600081600001549050919050565b600080611f3b83611200565b90508073ffffffffffffffffffffffffffffffffffffffff168473ffffffffffffffffffffffffffffffffffffffff161480611f7d5750611f7c8185611d17565b5b80611fbb57508373ffffffffffffffffffffffffffffffffffffffff16611fa3846106bf565b73ffffffffffffffffffffffffffffffffffffffff16145b91505092915050565b8273ffffffffffffffffffffffffffffffffffffffff16611fe482611200565b73ffffffffffffffffffffffffffffffffffffffff161461203a576040517f08c379a000000000000000000000000000000000000000000000000000000000815260040161203190614035565b60405180910390fd5b600073ffffffffffffffffffffffffffffffffffffffff168273ffffffffffffffffffffffffffffffffffffffff16036120a9576040517f08c379a00000000000000000000000000000000000000000000000000000000081526004016120a0906140c7565b60405180910390fd5b6120b48383836129eb565b6120bf600082611e68565b6001600360008573ffffffffffffffffffffffffffffffffffffffff1673ffffffffffffffffffffffffffffffffffffffff168152602001908152602001600020600082825461210f91906138f8565b925050819055506001600360008473ffffffffffffffffffffffffffffffffffffffff1673ffffffffffffffffffffffffffffffffffffffff1681526020019081526020016000206000828254612166919061392c565b92505081905550816002600083815260200190815260200160002060006101000a81548173ffffffffffffffffffffffffffffffffffffffff021916908373ffffffffffffffffffffffffffffffffffffffff160217905550808273ffffffffffffffffffffffffffffffffffffffff168473ffffffffffffffffffffffffffffffffffffffff167fddf252ad1be2c89b69c2b068fc378daa952ba7f163c4a11628f55a4df523b3ef60405160405180910390a46122258383836129f0565b505050565b612233816129f5565b600060066000838152602001908152602001600020805461225390613774565b90501461227a576006600082815260200190815260200160002060006122799190612e79565b5b50565b6001816000016000828254019250508190555050565b600073ffffffffffffffffffffffffffffffffffffffff168273ffffffffffffffffffffffffffffffffffffffff1603612302576040517f08c379a00000000000000000000000000000000000000000000000000000000081526004016122f990614133565b60405180910390fd5b61230b8161297f565b1561234b576040517f08c379a00000000000000000000000000000000000000000000000000000000081526004016123429061419f565b60405180910390fd5b612357600083836129eb565b6001600360008473ffffffffffffffffffffffffffffffffffffffff1673ffffffffffffffffffffffffffffffffffffffff16815260200190815260200160002060008282546123a7919061392c565b92505081905550816002600083815260200190815260200160002060006101000a81548173ffffffffffffffffffffffffffffffffffffffff021916908373ffffffffffffffffffffffffffffffffffffffff160217905550808273ffffffffffffffffffffffffffffffffffffffff16600073ffffffffffffffffffffffffffffffffffffffff167fddf252ad1be2c89b69c2b068fc378daa952ba7f163c4a11628f55a4df523b3ef60405160405180910390a4612468600083836129f0565b5050565b6124758261297f565b6124b4576040517f08c379a00000000000000000000000000000000000000000000000000000000081526004016124ab90614231565b60405180910390fd5b806006600084815260200190815260200160002090816124d491906143fd565b505050565b6000811161251c576040517f08c379a00000000000000000000000000000000000000000000000000000000081526004016125139061451b565b60405180910390fd5b6009543414612560576040517f08c379a000000000000000000000000000000000000000000000000000000000815260040161255790613fa3565b60405180910390fd5b6040518060a001604052808381526020013373ffffffffffffffffffffffffffffffffffffffff1681526020013073ffffffffffffffffffffffffffffffffffffffff16815260200182815260200160001515815250600b60008481526020019081526020016000206000820151816000015560208201518160010160006101000a81548173ffffffffffffffffffffffffffffffffffffffff021916908373ffffffffffffffffffffffffffffffffffffffff16021790555060408201518160020160006101000a81548173ffffffffffffffffffffffffffffffffffffffff021916908373ffffffffffffffffffffffffffffffffffffffff1602179055506060820151816003015560808201518160040160006101000a81548160ff021916908315150217905550905050612699333084611fc4565b817fb640004f1d14576d0c209e240cad0410e0d8c0c33a09375861fbadae2588a98d33308460006040516126d0949392919061453b565b60405180910390a25050565b8173ffffffffffffffffffffffffffffffffffffffff168373ffffffffffffffffffffffffffffffffffffffff160361274a576040517f08c379a0000000000000000000000000000000000000000000000000000000008152600401612741906145cc565b60405180910390fd5b80600560008573ffffffffffffffffffffffffffffffffffffffff1673ffffffffffffffffffffffffffffffffffffffff16815260200190815260200160002060008473ffffffffffffffffffffffffffffffffffffffff1673ffffffffffffffffffffffffffffffffffffffff16815260200190815260200160002060006101000a81548160ff0219169083151502179055508173ffffffffffffffffffffffffffffffffffffffff168373ffffffffffffffffffffffffffffffffffffffff167f17307eab39ab6107e8899845ad3d59bd9653f200f220920489ca2b5937696c318360405161283b9190612f8a565b60405180910390a3505050565b612853848484611fc4565b61285f84848484612b12565b61289e576040517f08c379a00000000000000000000000000000000000000000000000000000000081526004016128959061465e565b60405180910390fd5b50505050565b606060405180602001604052806000815250905090565b60606128c682611e15565b60006128d06128a4565b905060008151116128f0576040518060200160405280600081525061291b565b806128fa84612c99565b60405160200161290b929190613e7b565b6040516020818303038152906040525b915050919050565b6000816000015490506000811161296f576040517f08c379a0000000000000000000000000000000000000000000000000000000008152600401612966906146ca565b60405180910390fd5b6001810382600001819055505050565b60008073ffffffffffffffffffffffffffffffffffffffff166002600084815260200190815260200160002060009054906101000a900473ffffffffffffffffffffffffffffffffffffffff1673ffffffffffffffffffffffffffffffffffffffff1614159050919050565b505050565b505050565b6000612a0082611200565b9050612a0e816000846129eb565b612a19600083611e68565b6001600360008373ffffffffffffffffffffffffffffffffffffffff1673ffffffffffffffffffffffffffffffffffffffff1681526020019081526020016000206000828254612a6991906138f8565b925050819055506002600083815260200190815260200160002060006101000a81549073ffffffffffffffffffffffffffffffffffffffff021916905581600073ffffffffffffffffffffffffffffffffffffffff168273ffffffffffffffffffffffffffffffffffffffff167fddf252ad1be2c89b69c2b068fc378daa952ba7f163c4a11628f55a4df523b3ef60405160405180910390a4612b0e816000846129f0565b5050565b6000612b338473ffffffffffffffffffffffffffffffffffffffff16612df9565b15612c8c578373ffffffffffffffffffffffffffffffffffffffff1663150b7a02612b5c611e60565b8786866040518563ffffffff1660e01b8152600401612b7e949392919061473f565b6020604051808303816000875af1925050508015612bba57506040513d601f19601f82011682018060405250810190612bb791906147a0565b60015b612c3c573d8060008114612bea576040519150601f19603f3d011682016040523d82523d6000602084013e612bef565b606091505b506000815103612c34576040517f08c379a0000000000000000000000000000000000000000000000000000000008152600401612c2b9061465e565b60405180910390fd5b805181602001fd5b63150b7a0260e01b7bffffffffffffffffffffffffffffffffffffffffffffffffffffffff1916817bffffffffffffffffffffffffffffffffffffffffffffffffffffffff191614915050612c91565b600190505b949350505050565b606060008203612ce0576040518060400160405280600181526020017f30000000000000000000000000000000000000000000000000000000000000008152509050612df4565b600082905060005b60008214612d12578080612cfb906147cd565b915050600a82612d0b9190614844565b9150612ce8565b60008167ffffffffffffffff811115612d2e57612d2d6133ae565b5b6040519080825280601f01601f191660200182016040528015612d605781602001600182028036833780820191505090505b5090505b60008514612ded57600182612d7991906138f8565b9150600a85612d889190614875565b6030612d94919061392c565b60f81b818381518110612daa57612da9613960565b5b60200101907effffffffffffffffffffffffffffffffffffffffffffffffffffffffffffff1916908160001a905350600a85612de69190614844565b9450612d64565b8093505050505b919050565b6000808273ffffffffffffffffffffffffffffffffffffffff163b119050919050565b6040518060a0016040528060008152602001600073ffffffffffffffffffffffffffffffffffffffff168152602001600073ffffffffffffffffffffffffffffffffffffffff168152602001600081526020016000151581525090565b508054612e8590613774565b6000825580601f10612e975750612eb6565b601f016020900490600052602060002090810190612eb59190612eb9565b5b50565b5b80821115612ed2576000816000905550600101612eba565b5090565b6000604051905090565b600080fd5b600080fd5b60007fffffffff0000000000000000000000000000000000000000000000000000000082169050919050565b612f1f81612eea565b8114612f2a57600080fd5b50565b600081359050612f3c81612f16565b92915050565b600060208284031215612f5857612f57612ee0565b5b6000612f6684828501612f2d565b91505092915050565b60008115159050919050565b612f8481612f6f565b82525050565b6000602082019050612f9f6000830184612f7b565b92915050565b600081519050919050565b600082825260208201905092915050565b60005b83811015612fdf578082015181840152602081019050612fc4565b60008484015250505050565b6000601f19601f8301169050919050565b600061300782612fa5565b6130118185612fb0565b9350613021818560208601612fc1565b61302a81612feb565b840191505092915050565b6000602082019050818103600083015261304f8184612ffc565b905092915050565b6000819050919050565b61306a81613057565b811461307557600080fd5b50565b60008135905061308781613061565b92915050565b6000602082840312156130a3576130a2612ee0565b5b60006130b184828501613078565b91505092915050565b600073ffffffffffffffffffffffffffffffffffffffff82169050919050565b60006130e5826130ba565b9050919050565b6130f5816130da565b82525050565b600060208201905061311060008301846130ec565b92915050565b61311f816130da565b811461312a57600080fd5b50565b60008135905061313c81613116565b92915050565b6000806040838503121561315957613158612ee0565b5b60006131678582860161312d565b925050602061317885828601613078565b9150509250929050565b600081519050919050565b600082825260208201905092915050565b6000819050602082019050919050565b6131b781613057565b82525050565b60006131c8826130ba565b9050919050565b6131d8816131bd565b82525050565b6131e781612f6f565b82525050565b60a08201600082015161320360008501826131ae565b50602082015161321660208501826131cf565b50604082015161322960408501826131cf565b50606082015161323c60608501826131ae565b50608082015161324f60808501826131de565b50505050565b600061326183836131ed565b60a08301905092915050565b6000602082019050919050565b600061328582613182565b61328f818561318d565b935061329a8361319e565b8060005b838110156132cb5781516132b28882613255565b97506132bd8361326d565b92505060018101905061329e565b5085935050505092915050565b600060208201905081810360008301526132f2818461327a565b905092915050565b61330381613057565b82525050565b600060208201905061331e60008301846132fa565b92915050565b60008060006060848603121561333d5761333c612ee0565b5b600061334b8682870161312d565b935050602061335c8682870161312d565b925050604061336d86828701613078565b9150509250925092565b60006020828403121561338d5761338c612ee0565b5b600061339b8482850161312d565b91505092915050565b600080fd5b600080fd5b7f4e487b7100000000000000000000000000000000000000000000000000000000600052604160045260246000fd5b6133e682612feb565b810181811067ffffffffffffffff82111715613405576134046133ae565b5b80604052505050565b6000613418612ed6565b905061342482826133dd565b919050565b600067ffffffffffffffff821115613444576134436133ae565b5b61344d82612feb565b9050602081019050919050565b82818337600083830152505050565b600061347c61347784613429565b61340e565b905082815260208101848484011115613498576134976133a9565b5b6134a384828561345a565b509392505050565b600082601f8301126134c0576134bf6133a4565b5b81356134d0848260208601613469565b91505092915050565b600080604083850312156134f0576134ef612ee0565b5b600083013567ffffffffffffffff81111561350e5761350d612ee5565b5b61351a858286016134ab565b925050602061352b85828601613078565b9150509250929050565b61353e81612f6f565b811461354957600080fd5b50565b60008135905061355b81613535565b92915050565b6000806040838503121561357857613577612ee0565b5b60006135868582860161312d565b92505060206135978582860161354c565b9150509250929050565b600067ffffffffffffffff8211156135bc576135bb6133ae565b5b6135c582612feb565b9050602081019050919050565b60006135e56135e0846135a1565b61340e565b905082815260208101848484011115613601576136006133a9565b5b61360c84828561345a565b509392505050565b600082601f830112613629576136286133a4565b5b81356136398482602086016135d2565b91505092915050565b6000806000806080858703121561365c5761365b612ee0565b5b600061366a8782880161312d565b945050602061367b8782880161312d565b935050604061368c87828801613078565b925050606085013567ffffffffffffffff8111156136ad576136ac612ee5565b5b6136b987828801613614565b91505092959194509250565b600080604083850312156136dc576136db612ee0565b5b60006136ea85828601613078565b92505060206136fb85828601613078565b9150509250929050565b6000806040838503121561371c5761371b612ee0565b5b600061372a8582860161312d565b925050602061373b8582860161312d565b9150509250929050565b7f4e487b7100000000000000000000000000000000000000000000000000000000600052602260045260246000fd5b6000600282049050600182168061378c57607f821691505b60208210810361379f5761379e613745565b5b50919050565b7f4552433732313a20617070726f76616c20746f2063757272656e74206f776e6560008201527f7200000000000000000000000000000000000000000000000000000000000000602082015250565b6000613801602183612fb0565b915061380c826137a5565b604082019050919050565b60006020820190508181036000830152613830816137f4565b9050919050565b7f4552433732313a20617070726f76652063616c6c6572206973206e6f7420746f60008201527f6b656e206f776e6572206e6f7220617070726f76656420666f7220616c6c0000602082015250565b6000613893603e83612fb0565b915061389e82613837565b604082019050919050565b600060208201905081810360008301526138c281613886565b9050919050565b7f4e487b7100000000000000000000000000000000000000000000000000000000600052601160045260246000fd5b600061390382613057565b915061390e83613057565b9250828203905081811115613926576139256138c9565b5b92915050565b600061393782613057565b915061394283613057565b925082820190508082111561395a576139596138c9565b5b92915050565b7f4e487b7100000000000000000000000000000000000000000000000000000000600052603260045260246000fd5b7f4552433732313a2063616c6c6572206973206e6f7420746f6b656e206f776e6560008201527f72206e6f7220617070726f766564000000000000000000000000000000000000602082015250565b60006139eb602e83612fb0565b91506139f68261398f565b604082019050919050565b60006020820190508181036000830152613a1a816139de565b9050919050565b7f4f6e6c79206974656d206f776e65722063616e206275726e20746f6b656e0000600082015250565b6000613a57601e83612fb0565b9150613a6282613a21565b602082019050919050565b60006020820190508181036000830152613a8681613a4a565b9050919050565b7f4552433732313a20696e76616c696420746f6b656e2049440000000000000000600082015250565b6000613ac3601883612fb0565b9150613ace82613a8d565b602082019050919050565b60006020820190508181036000830152613af281613ab6565b9050919050565b7f4552433732313a2061646472657373207a65726f206973206e6f74206120766160008201527f6c6964206f776e65720000000000000000000000000000000000000000000000602082015250565b6000613b55602983612fb0565b9150613b6082613af9565b604082019050919050565b60006020820190508181036000830152613b8481613b48565b9050919050565b7f6f6e6c79206f776e6572206f6620746865206d61726b6574706c61636520636160008201527f6e206368616e676520746865206c697374696e67207072696365000000000000602082015250565b6000613be7603a83612fb0565b9150613bf282613b8b565b604082019050919050565b60006020820190508181036000830152613c1681613bda565b9050919050565b7f4f6e6c79206d61726b6574706c616365206f776e65722063616e20757064617460008201527f65206c697374696e672070726963652e00000000000000000000000000000000602082015250565b6000613c79603083612fb0565b9150613c8482613c1d565b604082019050919050565b60006020820190508181036000830152613ca881613c6c565b9050919050565b7f4f6e6c79206974656d2073656c6c65722063616e2063616e63656c2073616c65600082015250565b6000613ce5602083612fb0565b9150613cf082613caf565b602082019050919050565b60006020820190508181036000830152613d1481613cd8565b9050919050565b7f4974656d20686173206265656e20736f6c642c2063616e6e6f742063616e636560008201527f6c2073616c650000000000000000000000000000000000000000000000000000602082015250565b6000613d77602683612fb0565b9150613d8282613d1b565b604082019050919050565b60006020820190508181036000830152613da681613d6a565b9050919050565b7f506c65617365207375626d6974207468652061736b696e67207072696365206960008201527f6e206f7264657220746f20636f6d706c65746520746865207075726368617365602082015250565b6000613e09604083612fb0565b9150613e1482613dad565b604082019050919050565b60006020820190508181036000830152613e3881613dfc565b9050919050565b600081905092915050565b6000613e5582612fa5565b613e5f8185613e3f565b9350613e6f818560208601612fc1565b80840191505092915050565b6000613e878285613e4a565b9150613e938284613e4a565b91508190509392505050565b7f4f6e6c79206974656d206f776e65722063616e20706572666f726d207468697360008201527f206f7065726174696f6e00000000000000000000000000000000000000000000602082015250565b6000613efb602a83612fb0565b9150613f0682613e9f565b604082019050919050565b60006020820190508181036000830152613f2a81613eee565b9050919050565b7f5072696365206d75737420626520657175616c20746f206c697374696e67207060008201527f7269636500000000000000000000000000000000000000000000000000000000602082015250565b6000613f8d602483612fb0565b9150613f9882613f31565b604082019050919050565b60006020820190508181036000830152613fbc81613f80565b9050919050565b7f4552433732313a207472616e736665722066726f6d20696e636f72726563742060008201527f6f776e6572000000000000000000000000000000000000000000000000000000602082015250565b600061401f602583612fb0565b915061402a82613fc3565b604082019050919050565b6000602082019050818103600083015261404e81614012565b9050919050565b7f4552433732313a207472616e7366657220746f20746865207a65726f2061646460008201527f7265737300000000000000000000000000000000000000000000000000000000602082015250565b60006140b1602483612fb0565b91506140bc82614055565b604082019050919050565b600060208201905081810360008301526140e0816140a4565b9050919050565b7f4552433732313a206d696e7420746f20746865207a65726f2061646472657373600082015250565b600061411d602083612fb0565b9150614128826140e7565b602082019050919050565b6000602082019050818103600083015261414c81614110565b9050919050565b7f4552433732313a20746f6b656e20616c7265616479206d696e74656400000000600082015250565b6000614189601c83612fb0565b915061419482614153565b602082019050919050565b600060208201905081810360008301526141b88161417c565b9050919050565b7f45524337323155524953746f726167653a2055524920736574206f66206e6f6e60008201527f6578697374656e7420746f6b656e000000000000000000000000000000000000602082015250565b600061421b602e83612fb0565b9150614226826141bf565b604082019050919050565b6000602082019050818103600083015261424a8161420e565b9050919050565b60008190508160005260206000209050919050565b60006020601f8301049050919050565b600082821b905092915050565b6000600883026142b37fffffffffffffffffffffffffffffffffffffffffffffffffffffffffffffffff82614276565b6142bd8683614276565b95508019841693508086168417925050509392505050565b6000819050919050565b60006142fa6142f56142f084613057565b6142d5565b613057565b9050919050565b6000819050919050565b614314836142df565b61432861432082614301565b848454614283565b825550505050565b600090565b61433d614330565b61434881848461430b565b505050565b5b8181101561436c57614361600082614335565b60018101905061434e565b5050565b601f8211156143b15761438281614251565b61438b84614266565b8101602085101561439a578190505b6143ae6143a685614266565b83018261434d565b50505b505050565b600082821c905092915050565b60006143d4600019846008026143b6565b1980831691505092915050565b60006143ed83836143c3565b9150826002028217905092915050565b61440682612fa5565b67ffffffffffffffff81111561441f5761441e6133ae565b5b6144298254613774565b614434828285614370565b600060209050601f8311600181146144675760008415614455578287015190505b61445f85826143e1565b8655506144c7565b601f19841661447586614251565b60005b8281101561449d57848901518255600182019150602085019450602081019050614478565b868310156144ba57848901516144b6601f8916826143c3565b8355505b6001600288020188555050505b505050505050565b7f5072696365206d757374206265206174206c6561737420312077656900000000600082015250565b6000614505601c83612fb0565b9150614510826144cf565b602082019050919050565b60006020820190508181036000830152614534816144f8565b9050919050565b600060808201905061455060008301876130ec565b61455d60208301866130ec565b61456a60408301856132fa565b6145776060830184612f7b565b95945050505050565b7f4552433732313a20617070726f766520746f2063616c6c657200000000000000600082015250565b60006145b6601983612fb0565b91506145c182614580565b602082019050919050565b600060208201905081810360008301526145e5816145a9565b9050919050565b7f4552433732313a207472616e7366657220746f206e6f6e20455243373231526560008201527f63656976657220696d706c656d656e7465720000000000000000000000000000602082015250565b6000614648603283612fb0565b9150614653826145ec565b604082019050919050565b600060208201905081810360008301526146778161463b565b9050919050565b7f436f756e7465723a2064656372656d656e74206f766572666c6f770000000000600082015250565b60006146b4601b83612fb0565b91506146bf8261467e565b602082019050919050565b600060208201905081810360008301526146e3816146a7565b9050919050565b600081519050919050565b600082825260208201905092915050565b6000614711826146ea565b61471b81856146f5565b935061472b818560208601612fc1565b61473481612feb565b840191505092915050565b600060808201905061475460008301876130ec565b61476160208301866130ec565b61476e60408301856132fa565b81810360608301526147808184614706565b905095945050505050565b60008151905061479a81612f16565b92915050565b6000602082840312156147b6576147b5612ee0565b5b60006147c48482850161478b565b91505092915050565b60006147d882613057565b91507fffffffffffffffffffffffffffffffffffffffffffffffffffffffffffffffff820361480a576148096138c9565b5b600182019050919050565b7f4e487b7100000000000000000000000000000000000000000000000000000000600052601260045260246000fd5b600061484f82613057565b915061485a83613057565b92508261486a57614869614815565b5b828204905092915050565b600061488082613057565b915061488b83613057565b92508261489b5761489a614815565b5b82820690509291505056fea2646970667358221220654737ccf53d16941a414f097d7acf109ebaee5ad1addf2e740f6d6c9635610964736f6c63430008180033",
  "linkReferences": {},
  "deployedLinkReferences": {}
}